:100000000C9462000C948A000C948A000C948A0070
:100010000C948A000C948A000C948A000C948A0038
:100020000C948A000C948A000C948A000C948A0028
:100030000C948A000C948A000C948A000C948A0018
:100040000C94EE0A0C948A000C948A000C948A009A
:100050000C948A000C948A000C948A000C948A00F8
:100060000C9439030C948A0000000000240027003F
:100070002A0000000000250028002B0000000000DE
:1000800023002600290004040404040404040202DA
:100090000202020203030303030301020408102007
:1000A0004080010204081020010204081020000012
:1000B0000007000201000003040600000000000029
:1000C0000000350211241FBECFEFD4E0DEBFCDBF4C
:1000D00011E0A0E0B1E0EEEFFAE102C005900D9270
:1000E000A031B107D9F714E0A0E1B1E001C01D9241
:1000F000AB30B107E1F710E0C4ECD0E004C02297C8
:10010000FE010E94420DC23CD107C9F70E94E70AD6
:100110000C947D0D0C9400000F931F93CF93DF93ED
:10012000689F8001699F100D789F100D1124C801F0
:100130000E94A800EC01009729F060E070E0A8019F
:100140000E940B02CE01DF91CF911F910F91089574
:10015000CF93DF93BC018230910510F462E070E030
:10016000A0910904B0910A04ED01E0E0F0E040E064
:1001700050E021C0888199818617970769F48A81A8
:100180009B81309719F09383828304C090930A0473
:1001900080930904FE0134C06817790738F44115CB
:1001A000510519F08417950708F4AC01FE018A8106
:1001B0009B819C01E9012097E9F641155105A9F1C0
:1001C000CA01861B970B049708F4BA01E0E0F0E03F
:1001D0002AC08D919C91119784179507F9F46417A3
:1001E000750781F412968D919C911397309719F0B1
:1001F0009383828304C090930A0480930904FD01D1
:1002000032964CC0CA01861B970BFD01E80FF91FFF
:100210006193719302978D939C9340C0FD018281FD
:1002200093819C01D9011097A1F6809107049091C8
:100230000804892B41F4809102019091030190936D
:100240000804809307044091040150910501411571
:10025000510541F44DB75EB78091000190910101C5
:10026000481B590B2091070430910804CA01821BD6
:10027000930B8617970780F0AB014E5F5F4F841793
:10028000950750F0420F531F509308044093070402
:10029000F9016193719302C0E0E0F0E0CF01DF91DA
:1002A000CF910895CF93DF93009709F450C0EC01EC
:1002B00022971B821A82A0910904B0910A04109718
:1002C00009F140E050E0AC17BD0708F1BB83AA83F9
:1002D000FE0121913191E20FF31FAE17BF0779F4B0
:1002E0008D919C911197280F391F2E5F3F4F3983B5
:1002F000288312968D919C9113979B838A83411535
:10030000510571F4D0930A04C093090420C01296D9
:100310008D919C911397AD01009711F0DC01D3CF23
:10032000FA01D383C28321913191E20FF31FCE17DB
:10033000DF0769F488819981280F391F2E5F3F4FAD
:10034000FA01318320838A819B8193838283DF91A9
:10035000CF910895A0E0B0E0E0EBF1E00C944E0DF9
:10036000EC01A880B980CA80DB80A114B104C1046B
:10037000D10441F484E2A82E89EDB82E8BE5C82E75
:1003800087E0D82EC601B5012DE133EF41E050E002
:100390000E94030D27EA31E440E050E00E94E40CA3
:1003A0007B018C01C601B5012DE133EF41E050E046
:1003B0000E94030DCA01B9012CEE34EF4FEF5FEF3D
:1003C0000E94E40C6E0D7F1D801F911F97FF04C0DB
:1003D0006150704080409048688379838A839B8312
:1003E0009B01AC015F77B901CA01CDB7DEB7EAE086
:1003F0000C946A0D0E94AA01089586E091E00E9483
:10040000AA01089560930601709307018093080183
:10041000909309010895DC0101C06D934150504053
:10042000E0F7089581E08093190160931401109220
:1004300017011092180108958091130190911201F3
:10044000891B08959091120180911301981710F063
:1004500080E00895E0911001F0911101E90FF11D84
:1004600080819F5F9093120108950895DF93CF9349
:100470000F92CDB7DEB76983809119018823A9F067
:10048000809118018032B0F480911701E09115013C
:10049000F0911601E80FF11D6083809117018F5FC5
:1004A000809317018093180105C0CE01019661E089
:1004B0000E941C030F90CF91DF9108956091150168
:1004C00070911601809114014091180121E00E9461
:1004D000D702109217011092180110921901089575
:1004E000862F6091100170911101413208F040E2B5
:1004F0000E94A102109212018093130108950E949C
:100500007002089580E290E061E070E00E948C004B
:100510008093100190931101109212011092130117
:1005200080E290E061E070E00E948C008093150111
:100530009093160110921701109218010E94BB04AB
:100540000895982F413210F040E02FC080911B0198
:100550008823E1F781E080931B018FEF80932C01CA
:100560001092230140932401990F916090931C01F4
:1005700085EE8093BC0080911B018130E1F3809176
:100580002301841710F440912301A0912101B0911F
:10059000220120E030E007C0FB01E20FF31F8D9144
:1005A00080832F5F3F4F2417B8F3842F08951F9344
:1005B000582F122F413210F081E03CC080911B0176
:1005C0008823E1F782E080931B018FEF80932C0159
:1005D0001092230140932401A0912101B0912201A6
:1005E000FB0102C081918D938E2F861B8417D0F35F
:1005F000852F90E0880F991F80931C0185EE8093D2
:10060000BC00112321F080911B018230E1F3809125
:100610002C018F3F11F480E00DC080912C018032BD
:1006200011F482E007C080912C01803311F084E046
:1006300001C083E01F910895482F613210F081E0DE
:10064000089580911B01843011F082E00895609339
:100650002801A0912501B0912601842F9C01F90168
:1006600002C081918D938E2F841B8617D0F380E07A
:1006700008951F920F920FB60F9211242F933F935C
:100680004F935F936F937F938F939F93AF93BF939A
:10069000EF93FF938091B90090E0887F907080364F
:1006A000910509F4E2C081369105CCF588329105B7
:1006B00009F47BC089329105B4F48031910509F4C5
:1006C0006FC0813191053CF4009709F438C1089757
:1006D00009F040C165C08831910509F466C0809772
:1006E00009F038C17FC08034910509F4A3C081347A
:1006F000910544F48033910509F47FC0C89709F04F
:1007000029C186C08035910509F486C088359105D8
:1007100009F495C08834910509F01CC19EC0883940
:10072000910509F404C189399105ECF488379105E4
:1007300009F49BC0893791054CF48836910509F47A
:1007400094C08037910509F005C18FC088389105A4
:1007500009F4EDC08039910509F48DC08038910508
:1007600009F0F8C088C0803B910509F4B2C0813B14
:1007700091054CF4803A910509F491C0883A9105AD
:1007800009F0E8C0A6C0803C910509F4D4C0883CBB
:10079000910509F4D0C0883B910509F0DBC0B1C0D8
:1007A00080911C018093BB00C0C090912301809177
:1007B0002401981778F490912301E0912101F091A0
:1007C0002201E90FF11D80818093BB009F5F909310
:1007D0002301ABC085ED8093BC008091BC0084FDFB
:1007E000FCCFB6C080E280932C0185ED8093BC00E5
:1007F0008091BC0084FDFCCFABC080E380932C01D2
:1008000085ED8093BC008091BC0084FDFCCFA0C02E
:1008100088E380932C018FC0809123019091BB00CD
:10082000E0912101F0912201E80FF11D90838F5F8B
:1008300080932301909123018091240174C08091C1
:1008400023019091BB00E0912101F0912201E80F7A
:10085000F11D90838F5F8093230185ED8093BC0011
:100860008091BC0084FDFCCF73C083E080931B01AA
:1008700010922B015AC080912B01803208F057C092
:1008800080912B019091BB00E0912901F0912A0108
:10089000E80FF11D90838F5F80932B0146C08091FC
:1008A0002B01803248F480912B01E0912901F091D5
:1008B0002A01E80FF11D108260912B01E0911F01C8
:1008C000F09120018091290190912A0170E0099511
:1008D00032C084E080931B011092270110922801FE
:1008E000E0911D01F0911E01099580912801882356
:1008F00041F481E080932801E0912501F0912601E7
:10090000108290912701E0912501F0912601E90FD5
:10091000F11D80818093BB009F5F90932701909190
:10092000270180912801981710F485EC01C085E813
:100930008093BC000FC085EC8093BC0009C010926E
:100940002C0185ED8093BC008091BC0084FDFCCF20
:1009500010921B01FF91EF91BF91AF919F918F91E9
:100960007F916F915F914F913F912F910F900FBEAB
:100970000F901F90189510921B01449A459AE9EB2D
:10098000F0E080818E7F808380818D7F808388E40A
:100990008093B80085E48093BC0080E290E061E041
:1009A00070E00E948C00809321019093220180E2EC
:1009B00090E061E070E00E948C00809325019093AC
:1009C000260180E290E061E070E00E948C0080935C
:1009D000290190932A010895813029F590910B0106
:1009E0009923A9F080910A01E92FF0E043E0EE0F8E
:1009F000FF1F4A95E1F7E65BFE4FE80FF11DE05857
:100A0000FF4F8081882309F07EC0915026C08091DD
:100A10000C01823008F477C0815080930C0187E08C
:100A200080930B0170C0843031F590910B019730A9
:100A3000B9F080910A01E92FF0E033E0EE0FFF1FDB
:100A40003A95E1F7E65AFE4FE80FF11DE058FF4FE7
:100A50008081882309F057C09F5F90930B0153C09A
:100A600080910C01833008F04EC08F5F80930C01A1
:100A700010920B0148C0833011F590910A0199231F
:100A800099F0E0910B01F0E023E0EE0FFF1F2A95B3
:100A9000E1F7EE5AFE4FE90FF11DE158FF4F80815B
:100AA000882389F5915023C080910D01823058F13F
:100AB000815080930D0187E080930A0124C0823029
:100AC00011F590910A019730A9F0E0910B01F0E047
:100AD00083E0EE0FFF1F8A95E1F7EE5AFE4FE90F14
:100AE000F11DEF57FF4F8081882369F49F5F90933A
:100AF0000A0109C080910D01833028F48F5F809333
:100B00000D0110920A0181E080934F011092510172
:100B100010925001089560E070E080E090E024E0E1
:100B200030E040E050E00E94BE0C9B01AC0110920E
:100B3000E4031092E3031092E6031092E50310928F
:100B4000E8031092E7031092EA031092E90310926F
:100B5000EC031092EB031092EE031092ED0310924F
:100B6000F0031092EF031092F2031092F10321159B
:100B70003105A9F42FEF3FEF3093E4032093E30313
:100B800081E090E09093E8038093E7033093EE03D5
:100B90002093ED039093F2038093F1030895613065
:100BA000710599F48FEF9FEF9093F0038093EF031B
:100BB0003093EC032093EB039093EA038093E903D3
:100BC0003093E6032093E503089562307105A9F49C
:100BD0002FEF3FEF3093EC032093EB0381E090E0A5
:100BE0009093F0038093EF033093E6032093E503A3
:100BF0009093EA038093E903089563307105A1F4AB
:100C00002FEF3FEF3093E8032093E70381E090E07C
:100C10009093E4038093E3033093F2032093F10372
:100C20009093EE038093ED0308952F923F924F929D
:100C30005F926F927F928F929F92AF92BF92CF926C
:100C4000DF92EF92FF920F931F93DF93CF93CDB775
:100C5000DEB76A970FB6F894DEBF0FBECDBFCC24C7
:100C6000DD24EE24FF246624772475E1872E912C61
:100C700061E070E080E090E025E130E040E050E0AD
:100C80000E94BE0C788F6F8B2F8920FFF1CF5B0104
:100C900061E070E080E090E025E130E040E050E08D
:100CA0000E94BE0C8B0160FFF3CF6114710469F4E4
:100CB000A89CF001A99CF00DB89CF00D1124E60F42
:100CC000F71FE65DFD4F41E04083A89CF001A99C21
:100CD000F00DB89CF00D1124E60FF71FE65DFD4FF7
:100CE0008081882309F41BC10E948B058091E30356
:100CF0009091E4039E8B8D8B880F991F9C8B8B8B1F
:100D0000A091E503B091E603BA8BA98BAA0FBB1F94
:100D1000B88BAF87E091E703F091E803FE87ED879A
:100D2000EE0FFF1FFC87EB872090E9033090EA036A
:100D3000A101440F551F5A8749874090EB035090FB
:100D4000EC03C201880F991F98878F83A090ED0351
:100D5000B090EE03D501AA0FBB1FBE83AD83E09117
:100D6000EF03F091F003FA8FE98FEE0FFF1FFC8382
:100D7000EB836091F1037091F203AB01440F551FB7
:100D80005A83498320E030E040E091E0442309F0B9
:100D9000BDC02115310549F4CB88DC88AF89B88DF9
:100DA000CA0EDB1EEF84F88823C02130310549F4D8
:100DB000CB84DC84EF89F88DCE0EDF1EE984FA84C3
:100DC00017C02230310549F4CF80D884AF89B88D5F
:100DD000CA0EDB1EED80FE800BC02330310551F4BE
:100DE000CB80DC80EF89F88DCE0EDF1EE980FA80A3
:100DF000E00EF11EF4E1CF16D1040CF087C01C14F4
:100E00001D040CF083C054E1E516F1040CF07EC023
:100E10001E141F040CF07AC0C89CF001C99CF00D90
:100E2000D89CF00D1124EE0DFF1DE65DFD4F808175
:100E3000882309F06BC081E0808321153105B9F466
:100E4000AF89B88DED89FE89AE0FBF1FA89DF00157
:100E5000A99DF00DB89DF00D1124E65DFD4FE00F4A
:100E6000F11F49895A89E40FF51F808347C021305B
:100E70003105A1F48F89988DAD85BE858A0F9B1FA2
:100E8000889DF001899DF00D989DF00D1124E65D7F
:100E9000FD4FE00FF11FE20DF31D2EC02230310592
:100EA000A9F4EF89F88DE40DF51DAF01489DF0011F
:100EB000499DF00D589DF00D1124E65DFD4FE00FAA
:100EC000F11FEA0DFB1D51E0508318C0233031059E
:100ED000A9F48F89988DA98DBA8D8A0F9B1F889D43
:100EE000F001899DF00D989DF00D1124E65DFD4FF8
:100EF000E00FF11FE60FF71FB1E0B0830894611C0B
:100F0000711C8701D88ECF8A41E090E02F5F3F4F60
:100F10002430310509F03ACF992309F4E5CEE3E610
:100F20006E1671040CF4A4CE6A960FB6F894DEBF68
:100F30000FBECDBFCF91DF911F910F91FF90EF902A
:100F4000DF90CF90BF90AF909F908F907F906F90E9
:100F50005F904F903F902F900895EF92FF920F93E4
:100F60001F93CF93DF938C01EE24E394E2E0FE2EF7
:100F700080914A01813019F1813020F0823009F0EE
:100F800077C06DC08AE191E0B8010E941202CDE203
:100F9000D1E08AE191E069910E94360221E0CA34F1
:100FA000D207B9F78AE191E00E945E0265E070E045
:100FB00080E090E00E945E0BE0924A01D9CF8AE186
:100FC00091E0B80141E050E00E947F028AE191E0A7
:100FD0000E941C02882331F08AE191E00E942202E3
:100FE000982F14C080914B0190914C01A0914D011C
:100FF000B0914E010196A11DB11D80934B019093BC
:101000004C01A0934D01B0934E019FEF892F815069
:10101000823018F4F0924A0104C0992311F410921E
:101020004A0180914B0190914C01A0914D01B091EA
:101030004E0189589341A040B04050F010924B01AE
:1010400010924C0110924D0110924E0110924A01E3
:101050006AE070E080E090E00E945E0B89CF109221
:101060004A01DF91CF911F910F91FF90EF9008956A
:1010700010924A017DCF8F92AF92CF92EF920F9351
:10108000DF93CF93CDB7DEB732E530932D0134E057
:1010900030932E0130932F01309330013093310182
:1010A0006093320140933301209334010093350162
:1010B000E0923601C0923701A09238018092390146
:1010C0002A8520933A012B8520933B012C85209380
:1010D0003C012D8520933D012E8520933E012F85D7
:1010E00020933F01288920934001298920934101C1
:1010F0002A89209342012B89209343012C89209334
:1011000044012D89209345012E89209346012F8982
:1011100020934701288D20934801298D2093490170
:101120000E94AD07CF91DF910F91EF90CF90AF90DC
:101130008F9008952F923F924F925F926F927F927D
:101140008F929F92AF92BF92CF92DF92EF92FF92D7
:101150000F931F93CF93DF9330914F0180910A013A
:10116000082F10E080910B01882E9924C0E0D0E078
:101170004AE8442E41E0542E400E511E53C0822FA7
:10118000880F31972081282B332341F440175107D2
:10119000D1F468157905B9F42E7F15C00417150729
:1011A00091F48616970679F4CC2369F4D1018C91D9
:1011B000882349F4D5018C91882329F4D7018C9197
:1011C000882309F4216041505040BFEF4F3F5B0737
:1011D000B1F6F60121936F016150704088EF9FEFE7
:1011E000280E391E9FEF6F3F7907C1F0FB01E60D16
:1011F000F71D23E0EE0FFF1F2A95E1F7E75AFE4F98
:1012000080E047E050E090E4A92EB12CA20CB31C82
:10121000B0E8EB2EF12CE20CF31CB4CF2196C330D6
:10122000D10589F0CE01A3E0880F991FAA95E1F7B7
:10123000F2E1CF2EF2E0DF2EC80ED91E120167E0D8
:1012400070E03C01D3CFADB7BEB750970FB6F8945E
:10125000BEBF0FBEADBFEDB7FEB7319680911A028B
:1012600011968C9380911B02818380911C02828352
:1012700080911D02838380911E02848380911F02CE
:1012800085838091200286838091210287838091CB
:1012900022028087809123028187809124028287A5
:1012A000809125028387809126028487809127027E
:1012B000858780912802868780912902878784E02C
:1012C00090E060911202409113022091140200916B
:1012D0001502E0901602C0901702A09018028090AC
:1012E00019020E943B08EDB7FEB770960FB6F8944E
:1012F000FEBF0FBEEDBFDF91CF911F910F91FF9009
:10130000EF90DF90CF90BF90AF909F908F907F90A5
:101310006F905F904F903F902F90089585E00E94CE
:101320004D0C1092F703892B19F481E08093F70399
:1013300083E00E944D0C1092F803892B19F481E090
:101340008093F80386E00E944D0C1092F903892BDC
:1013500019F481E08093F90384E00E944D0C20E0B1
:10136000892B09F421E02093FA038091F703882365
:1013700031F08091F3038F5F8093F30302C01092EA
:10138000F3038091F803882331F08091F4038F5F99
:101390008093F40302C01092F4038091F903882330
:1013A00031F08091F5038F5F8093F50302C01092B6
:1013B000F503222331F08091F6038F5F8093F603CB
:1013C00002C01092F6038091F3038B3028F0109244
:1013D000F30381E00E94EC048091F4038B3028F049
:1013E0001092F40384E00E94EC048091F5038B30AA
:1013F00028F01092F50383E00E94EC048091F6033C
:101400008B3028F01092F60382E00E94EC040895DD
:10141000AF92BF92CF92DF92EF92FF920F931F9302
:10142000CF93DF9380915001909151010196909359
:101430005101809350010E948E098091500190913A
:101440005101459754F080914F0191E08927809395
:101450004F01109251011092500190910C01D090C7
:101460000D0187E0D89E7001112429EF3FEFE20EB5
:10147000F31E989FB00111246750704009ED11E0F0
:1014800040E050E0F5E1AF2EB12CCC24C39425C050
:10149000933039F44730510521F4F901E65FFD4FEF
:1014A00007C083E0D81631F42730310519F4F8016C
:1014B000C08203C08C918C2588832F5F3F4F11968B
:1014C00021962830310521F74F5F5F4F6F5F7F4FC7
:1014D000085F1F4F48305105B1F06A9DD0016B9DE8
:1014E000B00D7A9DB00D1124AE0DBF1DA65DBD4F90
:1014F000EA01E3E0CC0FDD1FEA95E1F7CE52DE4FC3
:1015000020E030E0C5CF933039F4F3E0DF1621F46A
:1015100081E08093BF0102C01092BF010E949A082F
:10152000DF91CF911F910F91FF90EF90DF90CF90BF
:10153000BF90AF90089585E060E00E94E00B86E0E8
:1015400060E00E94E00B84E060E00E94E00B83E03A
:1015500060E00E94E00B85E061E00E94000C83E007
:1015600061E00E94000C86E061E00E94000C84E0D3
:1015700061E00E94000C80E00E94C20B0E94DC0C23
:101580008AE191E00E9482021092E4031092E30348
:101590001092E6031092E5031092E8031092E7031D
:1015A0001092EA031092E9031092EC031092EB03FD
:1015B0001092EE031092ED031092F0031092EF03DD
:1015C0001092F2031092F1030E94150608950E94F2
:1015D000880B0E949B0A0E94080AFDCF1F920F925F
:1015E0000FB60F9211242F938F939F93AF93BF93B6
:1015F0008091FB039091FC03A091FD03B091FE0349
:101600000196A11DB11D8093FB039093FC03A09351
:10161000FD03B093FE038091FF0390910004A0911D
:101620000104B09102048050904CAF4FBF4F8093A3
:10163000FF0390930004A0930104B093020427C019
:101640008091FF0390910004A0910104B0910204E5
:1016500080589E43A040B0408093FF0390930004C5
:10166000A0930104B09302048091030490910404B8
:10167000A0910504B09106040196A11DB11D8093AF
:10168000030490930404A0930504B093060480918E
:10169000FF0390910004A0910104B09102048158CD
:1016A0009E43A040B04060F6BF91AF919F918F9153
:1016B0002F910F900FBE0F901F901895EF92FF92F1
:1016C0000F931F937B018C018FB7F8944091030413
:1016D0005091040460910504709106048FBF2FB7E8
:1016E000F8948091030490910404A0910504B091B2
:1016F00006042FBF841B950BA60BB70BE816F90643
:101700000A071B0760F71F910F91FF90EF90089554
:10171000789484B5826084BD84B5816084BD85B5CC
:10172000826085BD85B5816085BDEEE6F0E0808193
:1017300081608083E1E8F0E0808182608083808145
:1017400081608083E0E8F0E0808181608083E1EB6C
:10175000F0E0808184608083E0EBF0E08081816054
:101760008083EAE7F0E0808184608083808182600A
:1017700080838081816080838081806880831092F3
:10178000C1000895877090910E019295990F990F5D
:10179000907C982B90937C0080917A008064809359
:1017A0007A0080917A0086FDFCCF209178004091EC
:1017B0007900942F80E030E0282B392BC90108955F
:1017C000282F30E0C90186569F4FFC0194912A577B
:1017D0003F4FF9018491882391F0E82FF0E0EE0F5C
:1017E000FF1FE859FF4FA591B491662329F48C910E
:1017F000909589238C9308958C91892B8C930895CF
:10180000482F50E0CA0182559F4FFC012491CA0124
:1018100086569F4FFC0194914A575F4FFA013491CD
:101820003323D1F1222331F1233021F48091800040
:101830008F7705C0243031F4809180008F7D8093B4
:10184000800018C0213019F484B58F7704C022308D
:1018500021F484B58F7D84BD0DC0263021F48091A4
:10186000B0008F7705C0273029F48091B0008F7DBC
:101870008093B000E32FF0E0EE0FFF1FEE58FF4F14
:10188000A591B491662329F48C91909589238C932A
:1018900008958C91892B8C930895682F70E0CB016B
:1018A00082559F4FFC012491CB0186569F4FFC012E
:1018B00044916A577F4FFB019491992319F420E0DA
:1018C00030E038C0222331F1233021F480918000B0
:1018D0008F7705C0243031F4809180008F7D809314
:1018E000800018C0213019F484B58F7704C02230ED
:1018F00021F484B58F7D84BD0DC0263021F4809104
:10190000B0008F7705C0273029F48091B0008F7D1B
:101910008093B000892F90E0880F991F84589F4FC3
:10192000FC01A591B4918C9120E030E0842311F06A
:1019300021E030E0C9010895EF92FF920F931F93C9
:101940007B018C01611571058105910529F420E069
:1019500030E040E050E00BC00E94FD01A80197017B
:101960000E94030DAC01CB01DA019C01AD01B9016C
:10197000CA011F910F91FF90EF900895EF92FF928F
:101980000F931F937B018C016217730784079507E0
:1019900064F4261B370B480B590BCA01B9010E948E
:1019A0009C0CE60EF71E081F191FB701C8011F91F6
:1019B0000F91FF90EF900895009729F0BC0180E00F
:1019C00090E00E9402020895629FD001739FF0018F
:1019D000829FE00DF11D649FE00DF11D929FF00DBF
:1019E000839FF00D749FF00D659FF00D9927729FF6
:1019F000B00DE11DF91F639FB00DE11DF91FBD0181
:101A0000CF011124089597FB092E05260ED057FD0E
:101A100004D014D00AD0001C38F45095409530956D
:101A200021953F4F4F4F5F4F0895F6F79095809562
:101A3000709561957F4F8F4F9F4F0895A1E21A2EA9
:101A4000AA1BBB1BFD010DC0AA1FBB1FEE1FFF1F62
:101A5000A217B307E407F50720F0A21BB30BE40BB2
:101A6000F50B661F771F881F991F1A9469F76095F9
:101A70007095809590959B01AC01BD01CF010895B3
:101A8000EE0FFF1F0590F491E02D09942F923F92E5
:101A90004F925F926F927F928F929F92AF92BF927E
:101AA000CF92DF92EF92FF920F931F93CF93DF932A
:101AB000CDB7DEB7CA1BDB0B0FB6F894DEBF0FBE87
:101AC000CDBF09942A88398848885F846E847D84D4
:101AD0008C849B84AA84B984C884DF80EE80FD80D6
:101AE0000C811B81AA81B981CE0FD11D0FB6F8944C
:0E1AF000DEBF0FBECDBFED010895F894FFCF0D
:101AFE0020000B04000001000000010101010100A3
:00000001FF
