:100000000C941D020C9445020C9445020C9445027C
:100010000C9445020C9445020C9445020C94450244
:100020000C9445020C94E3090C9445020C9445028F
:100030000C9445020C9445020C9445020C94450224
:100040000C947D0A0C9445020C9445020C944502D4
:100050000C9445020C9445020C9445020C94450204
:100060000C944F040C9445020000004B000004BFA8
:1000700000004BFF0004BFFF004BFFFF04BFFFFF6A
:100080004BFFFFFFBFFFFFFDFFFD7100FFD710001B
:10009000FDF10000DA1000007100000110000017EF
:1000A0000000017E000017EF06EFFFFF6EFFFFFF6D
:1000B000EFFFFFFAFFFFFFA3FFFFFA30FFFAA300F5
:1000C000FFFA3000FFA30000000000000000000065
:1000D0000000000000000000000000000000000020
:1000E00000000000000000000FFFFFFF0FFFFFFFF8
:1000F0000FFFFFFF0FFFFFFF0FFFFFFF0FFFFFFFD0
:100100000FFFFFFF0FFFFFFF0000000000000000D7
:1001100000000000000000000000000000000000DF
:100120000000000000000000FFFD7100FFFD7100F5
:10013000FFFD7100FFFD7100FFFD7100FFFD71000B
:10014000FFFD7100FFFD71000000000000000000D5
:10015000000000000000000000000000000000009F
:10016000000000000000000000000000000000008F
:10017000000000000000000000000000000000007F
:100180000000000000000000FFFFFF4BFFFFF4BF76
:1001900000004BFF0004BFFF004BFFFF04BFFFFF49
:1001A0004BFFFFFFBFFFFFFDFFFD7100FFD71000FA
:1001B000FDF10000DA1000007100000110000017CE
:1001C0000000017E000017EF06EFFFFF6EFFFFFF4C
:1001D000EFFFFFFAFFFFFFA3FFFFFA30FFFAA300D4
:1001E000FFFA3000FFA30000FFFFFF4BFFFFF4BF4B
:1001F00000004BFF0004BFFF004BFFFF04BFFFFFE9
:100200004BFFFFFFBFFFFFFDFFFD7100FFD7100099
:10021000FDF10000DA10000071000001100000176D
:100220000000017E000017EF06EFFFFF6EFFFFFFEB
:10023000EFFFFFFAFFFFFFA3FFFFFA30FFFAA30073
:10024000FFFA3000FFA300000044447C444428101F
:10025000003C44443C44443C0038440404044438D6
:10026000001C24444444241C007C04043C04047CFE
:10027000000404043C04047C0078444474044438BE
:10028000004444447C44444400381010101010389A
:100290000018242020202070004424140C1424442E
:1002A000007C0404040404040044444454546C4496
:1002B00000444464544C4444003844444444443866
:1002C000000404043C44443C00582454444444384E
:1002D000004424143C44443C003C4040380404782E
:1002E000001010101010107C003844444444444462
:1002F0000010284444444444002854545444444482
:100300000044442810284444001010102844444459
:10031000007C04081020407C0078447840380000BD
:10032000003C44444C3404040038440404380000C5
:1003300000784444645840400038047C443800004D
:10034000000808081C084830384078444478000009
:10035000004444444C3404040038101010180010B9
:1003600018242020203000200024140C142404041D
:10037000003810101010101800444454542C000081
:10038000004444444C3400000038444444380000E5
:1003900004043C44443C000040405864645800005D
:1003A000000404044C340000003C403804380000D1
:1003B00000304808081C0808005864444444000001
:1003C00000102844444400000028545444440000D1
:1003D0000044281028440000384078444444000079
:1003E000007C0810207C00000038444C54644438E1
:1003F0000038101010101810007C081020404438ED
:10040000003844402010207C0020207C242830200C
:1004100000384440403C047C003844443C040830EC
:10042000000808081020407C003844443844443810
:100430000018204078444438C50311241FBECFEF74
:10044000D4E0DEBFCDBF12E0A0E0B1E0EEE5F6E122
:1004500002C005900D92A83FB107D9F713E0A8EFAD
:10046000B2E001C01D92AA34B107E1F714E0CAE37B
:10047000D4E004C02297FE010E94290BC833D107A3
:10048000C9F70E94760A0C942D0B0C9400000F9370
:100490001F93CF93DF93689F8001699F100D789F12
:1004A000100D1124C8010E946302EC01009729F08D
:1004B00060E070E0A8010E946503CE01DF91CF915A
:1004C0001F910F910895CF93DF93BC018230910566
:1004D00010F462E070E0A0914803B0914903ED018F
:1004E000E0E0F0E040E050E021C08881998186178B
:1004F000970769F48A819B81309719F093838283EF
:1005000004C09093490380934803FE0134C06817E8
:10051000790738F44115510519F08417950708F447
:10052000AC01FE018A819B819C01E9012097E9F6DB
:1005300041155105A9F1CA01861B970B049708F4D0
:10054000BA01E0E0F0E02AC08D919C9111978417E8
:100550009507F9F46417750781F412968D919C91B3
:100560001397309719F09383828304C090934903C3
:1005700080934803FD0132964CC0CA01861B970B3D
:10058000FD01E80FF91F6193719302978D939C937E
:1005900040C0FD01828193819C01D9011097A1F691
:1005A0008091460390914703892B41F48091020189
:1005B0009091030190934703809346034091040177
:1005C000509105014115510541F44DB75EB7809139
:1005D000000190910101481B590B20914603309175
:1005E0004703CA01821B930B8617970780F0AB0164
:1005F0004E5F5F4F8417950750F0420F531F509383
:10060000470340934603F9016193719302C0E0E010
:10061000F0E0CF01DF91CF910895CF93DF93009762
:1006200009F450C0EC0122971B821A82A091480362
:10063000B0914903109709F140E050E0AC17BD07B5
:1006400008F1BB83AA83FE0121913191E20FF31FD0
:10065000AE17BF0779F48D919C911197280F391F20
:100660002E5F3F4F3983288312968D919C9113976B
:100670009B838A834115510571F4D0934903C0933C
:10068000480320C012968D919C911397AD0100975D
:1006900011F0DC01D3CFFA01D383C28321913191D0
:1006A000E20FF31FCE17DF0769F488819981280FC5
:1006B000391F2E5F3F4FFA01318320838A819B814E
:1006C00093838283DF91CF910895DC0101C06D9304
:1006D00041505040E0F708958091FB029091FA025A
:1006E000891B08959091FA028091FB02981710F0EF
:1006F00080E00895E091F802F091F902E90FF11D10
:1007000080819F5F9093FA0208959C01809103037A
:1007100090910403892B11F19091FA028091FB02D0
:100720009817E0F090E00BC0E091F802F091F90228
:10073000EA0FFB1FA20FB31F8C9180839F5FA92F2D
:10074000B0E0A617B70784F31092FA026093FB0299
:10075000E0910303F0910403CB0109950895E09122
:100760000103F0910203309729F01092FE021092DB
:10077000FF0209950895709304036093030308959D
:10078000709302036093010308950895DF93CF935C
:100790000F92CDB7DEB76983809100038823A9F05B
:1007A0008091FF028032B0F48091FE02E091FC0261
:1007B000F091FD02E80FF11D60838091FE028F5FD2
:1007C0008093FE028093FF0205C0CE01019661E096
:1007D0000E9428040F90CF91DF91089580E290E06D
:1007E00061E070E00E9447028093F8029093F90262
:1007F0001092FA021092FB0280E290E061E070E059
:100800000E9447028093FC029093FD021092FE0228
:100810001092FF020E94D10508950F931F938C013F
:10082000862F0E9424048FEA93E00E944A0485E800
:1008300093E00E944504C8010E94EE031F910F91AE
:1008400008950E940D040895880F8093BA000895BA
:10085000482F613210F081E00895809106038430C2
:1008600011F082E0089560931303A0911003B091FA
:100870001103842F9C01F90102C081918D938E2F69
:10088000841B8617D0F380E0089590930B03809328
:100890000A030895909309038093080308951F9213
:1008A0000F920FB60F9211242F933F934F935F93A4
:1008B0006F937F938F939F93AF93BF93EF93FF9328
:1008C0008091B90090E0887F90708036910509F49E
:1008D000E2C081369105CCF58832910509F47BC0E0
:1008E00089329105B4F48031910509F46FC08131EA
:1008F00091053CF4009709F438C1089709F040C10C
:1009000065C08831910509F466C0809709F038C147
:100910007FC08034910509F4A3C08134910544F46B
:100920008033910509F47FC0C89709F029C186C0BA
:100930008035910509F486C08835910509F495C084
:100940008834910509F01CC19EC08839910509F4CD
:1009500004C189399105ECF48837910509F49BC0ED
:10096000893791054CF48836910509F494C0803795
:10097000910509F005C18FC08838910509F4EDC0D3
:100980008039910509F48DC08038910509F0F8C0CF
:1009900088C0803B910509F4B2C0813B91054CF4BD
:1009A000803A910509F491C0883A910509F0E8C0B0
:1009B000A6C0803C910509F4D4C0883C910509F497
:1009C000D0C0883B910509F0DBC0B1C0809107031E
:1009D0008093BB00C0C090910E0380910F039817C5
:1009E00078F490910E03E0910C03F0910D03E90F60
:1009F000F11D80818093BB009F5F90930E03ABC07D
:100A000085ED8093BC008091BC0084FDFCCFB6C016
:100A100080E28093170385ED8093BC008091BC0039
:100A200084FDFCCFABC080E38093170385ED8093FA
:100A3000BC008091BC0084FDFCCFA0C088E3809303
:100A400017038FC080910E039091BB00E0910C03BF
:100A5000F0910D03E80FF11D90838F5F80930E03DB
:100A600090910E0380910F0374C080910E039091BA
:100A7000BB00E0910C03F0910D03E80FF11D908392
:100A80008F5F80930E0385ED8093BC008091BC0046
:100A900084FDFCCF73C083E080930603109216039D
:100AA0005AC080911603803208F057C08091160317
:100AB0009091BB00E0911403F0911503E80FF11D34
:100AC00090838F5F8093160346C080911603803217
:100AD00048F480911603E0911403F0911503E80F98
:100AE000F11D108260911603E0910A03F0910B034F
:100AF000809114039091150370E0099532C084E051
:100B0000809306031092120310921303E0910803DE
:100B1000F0910903099580911303882341F481E042
:100B200080931303E0911003F091110310829091D0
:100B30001203E0911003F0911103E90FF11D808180
:100B40008093BB009F5F909312039091120380915A
:100B50001303981710F485EC01C085E88093BC005E
:100B60000FC085EC8093BC0009C01092170385ED7F
:100B70008093BC008091BC0084FDFCCF10920603E2
:100B8000FF91EF91BF91AF919F918F917F916F9165
:100B90005F914F913F912F910F900FBE0F901F903B
:100BA000189510920603449A459AE9EBF0E080818B
:100BB0008E7F808380818D7F808388E48093B800DE
:100BC00085E48093BC0080E290E061E070E00E94E8
:100BD000470280930C0390930D0380E290E061E064
:100BE00070E00E944702809310039093110380E20B
:100BF00090E061E070E00E944702809314039093BC
:100C000015030895E0EBF0E0808183608083E1EBE1
:100C1000F0E080818460808380818C7F808380810C
:100C20008C7F8083E6EBF0E080818083E0E7F0E07A
:100C3000808181608083809107018093B2007894E5
:100C40000895EF92FF920F931F93CF93DF9310922B
:100C50001E03F0901A038F2D90E001968170907022
:100C600045E0E42E00E010E0EC01CC0FDD1FC80FE2
:100C7000D91F25C0E92FE20FF0E0E35EFC4F808131
:100C80008D932F5F3F4F24303105A1F79C5F4F5F5D
:100C90005F4F4830510561F0DA01A60FB71FAA0F68
:100CA000BB1FAA0FBB1FA95EBE4F20E030E0E2CF02
:100CB00080E2E80E0F5F1F4F85E6E81661F09E2D7B
:100CC00040E050E0BE01600F711F83E0660F771FA8
:100CD0008A95E1F7E1CFF39481E0F822F0921A03CC
:100CE000DF91CF911F910F91FF90EF9008952F9278
:100CF0003F924F925F926F927F928F929F92AF92AC
:100D0000BF92CF92DF92EF92FF920F931F93DF93E8
:100D1000CF93CDB7DEB727970FB6F894DEBF0FBEDF
:100D2000CDBF80911F0382958F7020912103109277
:100D30001E03282E33248695898330911A033A8323
:100D4000832F90E001968170907060E070E02C013C
:100D5000440C551C480E591E41E02422332483E0E4
:100D6000289FF0011124FC83EB8330E03901660CED
:100D7000771C620E731EF981FC5FFD8361C0211434
:100D80003104F9F0EF2DF0E083E08F1508F434978B
:100D9000E20FF31FE859FF4F9491EF2DF0E082E04E
:100DA0008F1510F0319601C03397E20FF31FE85909
:100DB000FF4F849182958F709295907F982B9C9392
:100DC0000FC0EE2DF0E093E09E1508F434978E816D
:100DD0009F81E80FF91FE859FF4F8491F801808344
:100DE00011960F5F1F4FE394F394FD81EF1609F006
:100DF000C6CF4F5F5F4F48305105E9F0DA01A80DCB
:100E0000B91DAA0FBB1FAA0FBB1FA95EBE4F8D0144
:100E1000E980FE2CC501840F951F880F991F880F4C
:100E2000991F9F838E839601240F351F220F331F36
:100E3000220F331FA4CF6F5F7F4F63307105E1F046
:100E400040E050E04201860E971EA3E0880C991CFA
:100E5000AA95E1F7AB80BC80A60EB71EF3E0AA0C02
:100E6000BB1CFA95E1F76B01C60CD71CE3E0CC0C78
:100E7000DD1CEA95E1F7C2CF9A819F5F9170909354
:100E80001A0327960FB6F894DEBF0FBECDBFCF91E1
:100E9000DF911F910F91FF90EF90DF90CF90BF9067
:100EA000AF909F908F907F906F905F904F903F900A
:100EB0002F9008952F923F924F925F926F927F9260
:100EC0008F929F92AF92BF92CF92DF92EF92FF925A
:100ED0000F931F93DF93CF930F92CDB7DEB780911F
:100EE0001F03782E7294EFE07E227FE0472E482287
:100EF00080912003482F42954F705FE0552E582275
:100F00003091210310921E03232F21542A3158F0CF
:100F1000832F81568A3110F4265005C0232F205389
:100F20002A3008F020E070911A03872F90E0019694
:100F300081709070942E8824AA24BB243053398366
:100F4000222E332433E0220C331C3A95E1F7C72CD0
:100F5000DD2428EF3FEFC20ED31E7C01EE0CFF1CF8
:100F6000E80EF91E09C031E0831611F0952C01C07E
:100F7000942C0894A11CB11C692C629480EF682207
:100F800040E050E0D701AA0DBB1D03E0AA0FBB1F34
:100F90000A95E1F789818A3038F4FA01E20DF31DF0
:100FA000E851FC4F849106C0FA01E20DF31DE85BA5
:100FB000FD4F849190E0E6E0E71538F0072C02C081
:100FC000880F991F0A94E2F706C00C2C02C0959571
:100FD00087950A94E2F7FA01EA0FFB1FEE0FFF1F55
:100FE000EE0FFF1FE95EFE4F20E030E0082F10E01B
:100FF000C801022E02C0880F991F0A94E2F7962FAB
:101000009F7087FF03C0692F662901C0692F2F5F7A
:101010003F4FC801022E02C0880F991F0A94E2F7C1
:1010200021503040962F907F87FF03C0692F692998
:1010300001C0692F61932E5F3F4F28303105C1F603
:101040004F5F5F4F4830510509F0A4CF8394F3E020
:101050008F1609F088CF7F5F717070931A030F901D
:10106000CF91DF911F910F91FF90EF90DF90CF9084
:10107000BF90AF909F908F907F906F905F904F90B8
:101080003F902F900895FF920F931F93CF93DF937C
:1010900030911F033F7020912003422F42954F70E3
:1010A0002F7010921E0370911A03872F90E0019603
:1010B00081709070F42EF29410EFF122F42A022F36
:1010C0000295007F022B132F1295107F132B60E0E7
:1010D000AC01440F551F480F591FA3E0440F551F83
:1010E000AA95E1F72CC0613039F0613018F0623018
:1010F00031F404C0F88203C00C9301C010838F5FE9
:10110000219611963196843071F72F5F3F4F28302A
:10111000310591F0C901840F951F880F991F880F21
:10112000991FEC01C95EDE4FDC01A95CBE4FFC01DA
:10113000E95AFE4F80E0D7CF6F5F633019F020E0AF
:1011400030E0E8CF7F5F717070931A03DF91CF9129
:101150001F910F91FF900895AF92BF92CF92DF92AF
:10116000EF92FF920F931F93CF93DF9310921E0382
:1011700050911A03852F90E001968170907060E085
:1011800070E06C01CC0CDD1CC80ED91E48C0662373
:1011900021F41896BC9018970BC081E0A81611F4A2
:1011A000BC9006C082E0A81619F45096BC905097E7
:1011B000FE01E00FF11FEE0FFF1FEE0FFF1FE95EB4
:1011C000FE4F20E030E0EB2CFF24C701022E02C0CE
:1011D000880F991F0A94E2F787FF02C040EF01C011
:1011E00040E02F5F3F4FC701022E02C0880F991FBA
:1011F0000A94E2F72150304087FD4F6041932E5F03
:101200003F4F2830310509F721961196C830D10596
:1012100009F0BDCF6F5F7F4F6330710571F0A2E2BF
:10122000B3E0C0E0D0E0A62E8601060F171F83E0D2
:10123000000F111F8A95E1F7AACF5F5F517050939D
:101240001A03DF91CF911F910F91FF90EF90DF90E4
:10125000CF90BF90AF90089580911E03833091F09E
:10126000843028F4813041F08230A1F408C0843009
:1012700061F0853079F40CC00E94770608950E94D1
:101280005A0708950E94430808950E94AC080895E3
:101290000E942106089580911B03813029F081303E
:1012A000A8F0823089F406C00E942C0982E0809365
:1012B0001B03089580911C0380FF08C010921B033C
:1012C0008E7F80931C03089510921B0308951F9333
:1012D000162F429A20911A0330E040E050E0682F28
:1012E00070E0D901AA0FBB1FA20FB31F1CC09081D1
:1012F000892F82958F70181710F4409A01C040987A
:101300004198419A9F70191710F4409A01C0409873
:101310004198419A2F5F3196243049F74F5F5F4FD4
:101320004330510591F0FD01E40FF51F83E0EE0F0E
:10133000FF1F8A95E1F7E60FF71FEE0FFF1FEE0F75
:10134000FF1FE95EFE4F20E0D2CF42981F91089523
:101350008330B9F0843028F4813071F0823070F439
:1013600009C0853091F0853070F0863081F087308B
:1013700099F410C084E003C082E001C081E085B927
:10138000089580E805C080E403C080E201C080E1E8
:101390008BB9089588E08BB908950F931F93182F88
:1013A000062F439A8BB187708BB985B1887F85B939
:1013B000812F0E94A809812F602F0E9467094398FE
:1013C0001F910F9108951F920F920FB60F92112443
:1013D0002F933F934F935F936F937F938F939F933D
:1013E000AF93BF93EF93FF9360911903E62FF0E063
:1013F000E95FFE4F80818093B200809118030E94C4
:10140000CD09809118038F5F80931803883058F0BE
:1014100010921803809119038F5F80931903803114
:1014200010F010921903FF91EF91BF91AF919F912E
:101430008F917F916F915F914F913F912F910F907D
:101440000FBE0F901F90189585E093E060911B03ED
:101450000E94C60380911B038150823028F4809142
:101460001C03816080931C0308951F9310E00AC041
:1014700085E093E00E947203E12FF0E0E35EFC4F11
:1014800080831F5F85E093E00E946C03882381F7CF
:1014900080910601181741F480911D03823521F4D3
:1014A00081E080931B0302C010921B031F910895DB
:1014B0000F931F938FEF8AB987B984B91BB815B8FA
:1014C00005E013E0C80164E070E00E942104C80157
:1014D00065E37AE00E94BB03C80164E27AE00E94FF
:1014E000C0030E9402061F910F9108950E94ED0A09
:1014F0000E94580A0E944B09FDCF1F920F920FB60F
:101500000F9211242F938F939F93AF93BF9380914A
:101510003A0390913B03A0913C03B0913D030196A7
:10152000A11DB11D80933A0390933B03A0933C030C
:10153000B0933D0380913E0390913F03A0914003FF
:10154000B09141038050904CAF4FBF4F80933E030A
:1015500090933F03A0934003B093410327C0809131
:101560003E0390913F03A0914003B0914103805806
:101570009E43A040B04080933E0390933F03A093CE
:101580004003B09341038091420390914303A091A3
:101590004403B09145030196A11DB11D8093420300
:1015A00090934303A0934403B093450380913E037B
:1015B00090913F03A0914003B091410381589E4315
:1015C000A040B04060F6BF91AF919F918F912F9155
:1015D0000F900FBE0F901F901895789484B582607D
:1015E00084BD84B5816084BD85B5826085BD85B5C7
:1015F000816085BDEEE6F0E0808181608083E1E876
:10160000F0E0808182608083808181608083E0E877
:10161000F0E0808181608083E1EBF0E08081846094
:101620008083E0EBF0E0808181608083EAE7F0E096
:1016300080818460808380818260808380818160FA
:1016400080838081806880831092C1000895EE0FAE
:0E165000FF1F0590F491E02D0994F894FFCF50
:10165E0020004A0300001DE7E7E7E7E7E7E7E7E7D3
:10166E00E7E7E7E7E7E7E70000004B000004BF000D
:10167E00004BFF0004BFFF004BFFFF04BFFFFF4BFB
:10168E00FFFFFFBFFFFFFDFFFD7100FFD71000FD45
:10169E00F10000DA100000710000011000001700C8
:1016AE0000017E000017EF06EFFFFF6EFFFFFFEF5A
:1016BE00FFFFFAFFFFFFA3FFFFFA30FFFAA300FFC1
:1016CE00FA3000FFA30000FFFFFF4BFFFFF4BF0047
:1016DE00004BFF0004BFFF004BFFFF04BFFFFF4B9B
:1016EE00FFFFFFBFFFFFFDFFFD7100FFD71000FDE5
:1016FE00F10000DA10000071000001100000170068
:10170E0000017E000017EF06EFFFFF6EFFFFFFEFF9
:10171E00FFFFFAFFFFFFA3FFFFFA30FFFAA300FF60
:10172E00FA3000FFA30000000000000000000000DF
:10173E00000000000000000000000000000000009B
:10174E00000000000000000000000000000000008B
:10175E00000000000000000000000000000000007B
:10176E00000000000000000000000000000000006B
:10177E00000000000000000000000000000000005B
:10178E00000000000000000000000000000000004B
:10179E00000000000000000000000000000000003B
:1017AE00000000000000000000000000000000002B
:1017BE00000000000000000000000000000000001B
:1017CE00000000000000000000000000000000000B
:1017DE0000000000000000000000000000000000FB
:1017EE0000000000000000000000000000000000EB
:1017FE0000000000000000000000000000000000DB
:10180E0000000000000000000000000000000000CA
:10181E0000000000000000000000000000000000BA
:10182E0000000000000000000000000000000000AA
:10183E00000000000000000000000000000000009A
:08184E00000000000000000092
:00000001FF
